:020000041000EA
:10000000002008205D0100101B0100101D010010E0
:100010001101001011010010110100101101001058
:100020001901001019010010190100101F01001022
:10003000110100101901001021010010230100100E
:100040001101001011010010110100101101001028
:100050001101001011010010110100101101001018
:100060001101001011010010110100101101001008
:1000700011010010110100101101001011010010F8
:1000800011010010110100101101001011010010E8
:1000900011010010110100101101001011010010D8
:1000A00011010010110100101101001011010010C8
:1000B00011010010110100101101001011010010B8
:1000C00011010010110100101101001011010010A8
:1000D0001101001011010010110100101101001098
:1000E0001101001011010010110100101101001088
:1000F0001101001011010010110100101101001078
:100100001101001011010010110100101101001067
:10011000EFF30580103800BE00BE00BE00BE00BE7A
:1001200000BE00BEF2EB8871A4080810C4080810D5
:10013000A001001090A31AE7D3DEFFFF42012110B7
:10014000FF01000008340800793512AB4FF00000C1
:100150001E49086006C881F3088810474FF05040D8
:10016000006810B14FF00000F2E70DA40ECC00299A
:1001700002D000F012F8F9E71549164A002000E015
:1001800001C19142FCD11449884714498847144958
:10019000884700BEFDE701C901C29A42FBD3704700
:1001A000C4080810200100209C2D002040350810B4
:1001B000000008200000082040350810001008202A
:1001C00000100820000000007047000008ED00E06B
:1001D0009C2D0020B4E20220396900103502001085
:1001E000FD680010F8B500BF08B5034B1BB103490B
:1001F0000348AFF3008008BD0000000020BA0220D1
:10020000743904100FB400B5C3B044AB53F8042BD9
:100210004FF4807102A8019306F090FA02A800F052
:10022000FBFB43B05DF804EB04B0704708B100F08D
:10023000F3BB704708B506F0E5FC4FF4FA6002F036
:100240005DF8214806F022FD44F2445013F07EFC94
:1002500050BB13F031FC1D491D4806F097FD47F2D5
:1002600030531C4A1C49194813F032FC38BB1B4858
:1002700006F00CFD1A4B186830B1043013F0DEF8AC
:100280000146184806F082FD00F0DCFC16491748CC
:1002900000F034F800F0C8FE13F06CFC00F070FEC3
:1002A0000A2002F02BF8F7E7114806F0EFFC11489E
:1002B00006F0ECFC4FF47A7002F020F8FAE7014601
:1002C0000D4806F063FDF2E778390410D8390410C0
:1002D000E8390410060040000C3A0410383A0410C3
:1002E00010BA02204C3A0410050200102D02001032
:1002F000B0390410603A0410183A0410002370B5A5
:100300000B4A0C4D0C4C0D4E23703360116028606D
:1003100060B103460A48984723783BB900F0F6FDE0
:1003200020B92B680748BDE87040184770BD00BF72
:10033000B4390020B83900209EE20220C04C0220CF
:10034000803A0410C03A041008B5054B1B7823B955
:1003500000F0DCFD08B9034808BD002008BD00BF5F
:100360009EE20220C03A04102DE9F0475A4C05469F
:100370002378FBB1012B01D0BDE8F08757493EF04F
:1003800053FB574F3E68002858D1564BB6F1011F1A
:100390001B6800F29780544A90551BB13146534870
:1003A00098473E683146504800F020FE00232370F5
:1003B0003B60E1E74E493EF037FB002854D0284629
:1003C0004C493EF031FB00284ED028464A493EF0C9
:1003D0002BFB002853D0284648493EF025FB002837
:1003E0004DD0284646493EF01FFB002862D02846E3
:1003F00044493EF019FB00285CD0284642493EF0B3
:1004000013FB20B1284641493EF00EFB68B9404B32
:1004100040481B68984700F04DFCC82001F06EFF73
:1004200000221146104602F07FF92E4B1B68002B6C
:10043000A2D02946BDE8F0473748184728463EF085
:1004400087FC00EB060808F10109B9F1011F25D965
:100450000023244A237012683B60002A8CD0BDE838
:10046000F0472E492E48104701250021284B1C4AF1
:1004700025701B682B481160BDE8F0471847244CD5
:1004800029482368984723682848984723682848BC
:10049000984723682748BDE8F0471847124C0246A2
:1004A0002946A0193EF0DEFB0A23C7F8009004F8A5
:1004B000083061E7164B20481B689847BDE8F047B5
:1004C00000F0F8BB20703860002B3FF455AFBDE85A
:1004D000F0471A49124818479EE20220083C0410CF
:1004E000C04C0220B4390020AC4C0020403C041029
:1004F000C83A0410CC3A0410103B0410183B041006
:10050000B43B0410BC3B0410D03B0410D83B041097
:10051000B8390020E03B0410F03B0410643C0410A8
:10052000243C0410D43A0410203B04102C3B04104B
:100530006C3B0410883B0410C43B0410103C0410B6
:1005400008B5012118F064FE01460020091A18BF01
:10055000012113F001FB002008BD00BF00000000D6
:1005600038B501212CF0D0FF0022002304460D46AF
:1005700003F082FAD0B9204629460022104B03F03E
:1005800041F90DA3D3E9002304460D4603F0B0FA68
:1005900070B109A1D1E9000100220A4B03F00AF968
:1005A00003F034FA01F0AAFE002038BD0024002533
:1005B00020462946F0E700BF0000E0FFFFFFEF41C3
:1005C00000408F400000E03F10B50022084904467B
:1005D00018F056FE0246074B2046002A08BF1A466E
:1005E000054919F079F82046BDE810401AF09EB888
:1005F000D7B9F0FF703C0410843C041010B50446D9
:1006000001F094FF89B14FF47A72002343F04CF962
:1006100003F0D8F90022074B03F01AF902460B4603
:10062000204618F0F3FF012010BD034AA2FB00236F
:100630009809EDE700408F40D34D62102DE9F04F4F
:10064000C3B0074618F064F9B0F1000959D04FF073
:10065000000402AD2C7028DD4FF0010BA2462E4E97
:100660000DF104085946424638462DF041FB631C03
:10067000014620B3BBF1010F14BF20202346D8F858
:10068000002018BF2853C3F1FF04944220D2E81879
:100690002246C8F800403EF0E5FA00236FF0010161
:1006A000384685F8FF3018F03BF9284600F034FC56
:1006B000284606F0EBFA002043B0BDE8F08FBBF10E
:1006C000010FC8F8000015D0202231462A530246F7
:1006D000E8189C183EF0C6FA6FF00101384605F89C
:1006E00004A018F01DF9FE2CDFD80BF1010BD94541
:1006F000B8DADAE728556FF00101384618F010F93A
:10070000F3E7054800F008FC034806F0BFFA0020B4
:1007100043B0BDE8F08F00BF843E0410F0B5544CE8
:1007200089B025680DB109B0F0BD2DF055FD2060F0
:10073000002800F09A8001234E4A4F492DF036FCE4
:100740006FF00101206818F0EBF801234B4A4C4987
:1007500020682DF02BFC6FF00101206818F0E0F804
:100760000123484A484920682DF020FC6FF0010120
:10077000206818F0D5F80123444A454920682DF037
:1007800015FC6FF00101206818F0CAF80123414AF6
:10079000414920682DF00AFC6FF00101206818F033
:1007A000BFF801233D4A3E4920682DF0FFFB6FF062
:1007B0000101206818F0B4F82A462946206819F08B
:1007C00021FA2A463749206818F09EFF6FF0010190
:1007D000354A206819F07CFBEC466E46334F344DA9
:1007E0000FCFACE80F0097E80F008CE80F00294608
:1007F000206818F047FF01222E49206818F084FF76
:100800002A466FF00101206819F062FB56F8045F78
:10081000002DECD12849206819F0B2FA2A46274960
:10082000206818F071FF2649206819F0A9FA20689D
:1008300000F0EAFA2A462349206818F065FF2249A9
:10084000206819F09DFA2A462049206818F05CFFBC
:100850001F49206819F094FA1E4800F05DFB1D48FE
:1008600009B0BDE8F04006F011BA1B48F8E700BF38
:10087000C44C022049ED0210D03C04106147031023
:10088000CC710410853B0310EC730410DD090310D8
:10089000D43C0410E94F0310DC3C041039F9021079
:1008A000E43C0410FD050010EC3C0410B48104107D
:1008B000A43C0410C9050010F43C04103D060010CF
:1008C000F83C041061050010003D041041050010C3
:1008D0000C5B0410083D0410AC3C0410F0B5304E25
:1008E000054633680C4697B063B305B144B92D484B
:1008F00000F012FB2B4817B0BDE8F04006F0C6B977
:10090000002723465021284A02A805F001FF02A82B
:1009100000F002FB02A806F0B9F90097224629462A
:10092000224B30682DF03CF904463068A4B92346C8
:100930004FF0FF322146CDE9004419F08DFD10BB88
:1009400017B0F0BDFFF7EAFE3368002BCDD1184891
:1009500000F0E2FA1648CEE73A464FF0FF3118F0C1
:100960008FFC144BB84214BF04461C46204600F0CE
:10097000D3FA204606F08AF96FF00101306817F0CB
:10098000CFFF17B0F0BD22464FF0FF31306818F0AE
:1009900077FC094B002814BF04461C46E6E700BF5D
:1009A000C44C0220703D0410943D0410BC3D041062
:1009B000503D04101C3D0410343D041000207047CD
:1009C00030B310B504460068B0B100210BF0A0F8B8
:1009D000002120680BF0A0F8002120680BF0B8F887
:1009E000002120680BF0A6F80022206811460BF0C9
:1009F000C3F820680BF096FC064B20461A68944218
:100A000008BF0022BDE8104008BF1A6004F01ABBFE
:100A1000704700BF5838002098B32DE9F843DFF83D
:100A20006480D8F8003003B31F68F7B106463EF083
:100A30008FF90546C8B140F2B4594D452C4628BF40
:100A40004C46012331463846A2B20DF043FAD8F89D
:100A5000003026441F6850B92D1BEED1D8F8003065
:100A60001868BDE8F8430EF011BBBDE8F8833846BE
:100A70000EF00CFBD8F800301868BDE8F8430EF013
:100A800005BB70475838002082BB70B50C4681B357
:100A90001C4D2E6826BB4FF48471012004F094FA9B
:100AA000014648B30460C0F80461286020460BF09A
:100AB0002FF8204614490BF02FF8204613490BF06D
:100AC00047F8204612490BF035F812491248FFF753
:100AD00015FCFFF739FC08B1FFF79EFF002070BD41
:100AE00008460BF091F96FF00C0070BD6FF0050037
:100AF00070476FF0050070BD20460BF085F94FF090
:100B0000FF3070BD58380020490B0010C10900109B
:100B1000BD0900101D0B0010450B00100FB400B5EF
:100B2000C3B044AB53F8042B4FF4807102A8019377
:100B300005F004FE02A8FFF76FFF43B05DF804EB79
:100B400004B07047FFF768BF2DE9F84F8846164696
:100B5000002840D08146002A4AD01D46002B3DD1B6
:100B60009346071DBBF80A10DBF80430A9B1002436
:100B700003F1FF3A1AF8012F0D2A0AD00A2AD9F8F0
:100B8000043119D0FE2B04DC581C4B44C9F8040175
:100B90001A710134A4B28C42ECD3DBF800B0BBF183
:100BA000000FDFD1404631890AF0C4FC30460AF01C
:100BB00071F80020BDE8F88F4B4438461D71FFF7EF
:100BC000D3FBFFF7C1FB08B1FFF726FFBBF80A1004
:100BD000C9F80451DDE7002AE4D1EAE708461189A3
:100BE0000AF0A8FC30460AF055F82846BDE8F88F10
:100BF0000068D8B111460AF08BFF3146D9F80000E1
:100C00000AF08AFF3146D9F800000AF0A1FF314608
:100C1000D9F800000AF08EFFD9F8000032463146BC
:100C20000AF0AAFFD9F800000BF07CFB044B484601
:100C30001A68914504BF00221A6004F003FAB8E76D
:100C40005838002010B500200BF0BAF908B317226D
:100C5000124904460AF08AFB68B9012120460AF0CD
:100C6000EDFB88B10E490AF081FFBDE81040172165
:100C70000C4806F08BB801460B4806F087F8204672
:100C8000BDE810400BF04EBB0848BDE8104005F031
:100C9000FDBF0748BDE8104005F0F8BF48850410C7
:100CA000890A00105C3E0410203E0410403E0410EF
:100CB000003E041038B5164D2C683CB32068F0B1E6
:100CC00000210AF025FF002120680AF025FF0021FD
:100CD00020680AF03DFF002120680AF02BFF002267
:100CE000206811460AF048FF20680BF01BFB2B68B8
:100CF0009C4204D02046BDE8384004F0A3B900234C
:100D000020462B60BDE8384004F09CB938BD00BFD8
:100D10005838002010B5012104462CF033FC1D2862
:100D20000CD84FF050410123496883400B40B3FA7F
:100D300083F35B0943EC4000002010BD02460349E9
:100D40002046BDE810402BF0E7BD00BF883E0410F0
:100D500038B5012104462CF015FC1D2802460ED89A
:100D60004FF050430125596805FA02F2114000394D
:100D7000204618BF012118F0FBFC284638BD20464C
:100D8000BDE8384001492BF0C7BD00BF883E0410C4
:100D900038B5012105462CF0F5FB04460221284612
:100DA00018F036FA1D2C06D8003818BF012040EC88
:100DB0004040002038BD22462846BDE83840014961
:100DC0002BF0AABD883E041070B5012106462CF018
:100DD000D9FB0446022130462CF0D4FB1D2C0AD846
:100DE0000546204600F0CAF9281E18BF012040EC35
:100DF0004440002070BD22463046BDE870400149A5
:100E00002BF08ABD883E0410002210B5044611461E
:100E100018F0F8FE20460022224918F075FC204602
:100E20006FF00101204A19F053F8204600221F49B3
:100E300018F06AFC20466FF001011D4A19F048F8CD
:100E4000204600221B4918F05FFC20466FF001018C
:100E5000194A19F03DF820460022184918F054FCB0
:100E60006FF001012046164A19F032F8002320469F
:100E7000002218F0D9FB6FF001012046114A19F049
:100E800027F820460122002318F0CEFB20466FF001
:100E900001010D4A19F01CF82046BDE810400B492D
:100EA00018F06EBFC90D0010A03E0410910D001087
:100EB000A83E0410510D0010B03E0410150D001096
:100EC000B83E0410C03E0410C83E0410D03E0410CA
:100ED00070B5FFF723FC0126084C094D094842F084
:100EE00013FD21684B1EB3F1011FF7D806482E7081
:100EF000FFF7F4FC00232B702360EFE7B44C0220D3
:100F0000A6E20220B84C0220B04C0120014B187818
:100F1000704700BFA6E2022040B32DE9F843064621
:100F20003DF016FF00B30023114A124D124FDFF8B7
:100F30004CE000F10208A2EB00092A683968541C51
:100F40009842A4EB01018CBF16F803C019F803C046
:100F5000B1F5805FC2F30B0203F1010304D8984599
:100F60002C600EF802C0E8D1BDE8F883704700BFDE
:100F7000CC3B041040CA022044CA022040BA0220DE
:100F8000F0B5174C174E22683368A1B09A4225D0AD
:100F90000025154F226833689A4208BF002114D0FB
:100FA0006846002101E07F290FD023682268C3F33F
:100FB0000B0301322260226817F803C0336800F87F
:100FC00001CB9A4201F10101EDD1694468460D70EF
:100FD000FFF722FD226833689A42DBD121B0F0BDD1
:100FE00044CA022040CA022040BA022008B10A4680
:100FF00001B9704710B5084C0146944228BF144609
:10100000064822463DF02EFE054B06481C60BDE812
:10101000104042F081BC00BF02000100B04C012032
:10102000B44C0220B84C022008B50548012200212A
:1010300000F0CEFCBDE80840024817F0DBBB00BF63
:10104000B84C0220D10E001010B44FF480740C4B39
:1010500053F8202003EB8003C00082F0400200F12F
:10106000804003F5805C02F0C00200F5203003F5FB
:101070004053CCF8002041601C605DF8044B704781
:101080000480034010B4084CC90041EA820154F8BE
:10109000202004EB8003514003F5805301F00C0144
:1010A0005DF8044B1960704704800340064B022230
:1010B00003EB800319B103F500531A60704703F581
:1010C00040531A60704700BF048003404FF0504304
:1010D0001B6893B10C4B4FEAD00C00F00700800066
:1010E00081400A4803EB8C030CF18C0C40F82C1067
:1010F0002AB103F5005319607047054BEBE703F580
:1011000040531960704700BF908202400080024047
:10111000488202402DE9F0414FF050480D4FD8F879
:101120000030164657F82320044602420D4609D1E6
:1011300014432946324647F823401520BDE8F041C4
:1011400000F0CAB901F0D2FBD8F8003057F82320DC
:10115000EEE700BFF4E1022010B50446152000F0D0
:10116000AFFA4FF05043044A196852F8213023EA8D
:10117000040342F8213010BDF4E1022030B44FF0F6
:10118000000343EC440043EC400005254FF4807419
:101190000B4BC20053F8201003EB800081F040019C
:1011A00002F1804303F5203301F0C00200F58051C5
:1011B00000F540500A605D60046030BC704700BFBD
:1011C000048003400FB400B583B0049C074805F0C9
:1011D0005DFD3CB105A92046019105F0F9FA0448EE
:1011E00005F054FD012005F00BFB00BFD83E0410B4
:1011F000083A0410EFF3108072B6064BD3E8CF1F05
:1012000001220029FAD1C3E8412F0029F6D1BFF30A
:101210005F8F70473F3400200023034AC2E88F3FAE
:1012200080F31088704700BF3F34002070B58646B9
:10123000EFF3108572B6124CD4E8CF6F0120002E68
:10124000FAD1C4E8460F002EF6D1BFF35F8F4FF0FE
:10125000010CC80801F007030CFA03F31EF800C0E4
:101260001CEA030608D14CEA030C0EF800C0C4E8DF
:101270008F6F85F3108870BD1046FFF7A3FF00BF86
:101280003F340020F8B5EFF3108772B61C4ED6E855
:10129000CF5F0124002DFAD1C6E8454F002DF6D1CD
:1012A000BFF35F8F9A421BD8012502E001329342BF
:1012B00022D3D40810F804E002F0070C05FA0CFC65
:1012C0001EEA0C0FF2D14EEA0C0E00F804E01046B4
:1012D0000023C6E88F3F87F31088984207DBF8BDEC
:1012E0000023C6E88F3F87F310884FF0FF300029B6
:1012F000F5D00698FFF766FF4FF0FF30E8E700BF34
:101300003F34002000B5EFF3108E72B6104BD3E8D7
:10131000CFCF0122BCF1000FF9D1C3E84C2FBCF1B3
:10132000000FF4D1BFF35F8F01224FEAD10C01F01F
:10133000070102FA01F110F80C2022EA010200F87C
:101340000C200022C3E88F2F8EF310885DF804FB79
:101350003F340020044A1078431CDBB2182B28BF0E
:1013600010231370704700BFB825002010B5054C3E
:1013700082B001461F23182200940348FFF782FF22
:1013800002B010BDE83E0410803900204FF0E0228A
:10139000936843F000539360704700BF0021044BF3
:1013A00003F12002C3E88F1F01339342FAD1704743
:1013B000343400204FF0E0234FF08032C3F8002493
:1013C000C3F80424C3F80824C3F80C24C3F8102479
:1013D000C3F81424C3F81824C3F81C24C3F8202429
:1013E000C3F82424C3F82824C3F82C24C3F83024D9
:1013F00062B67047012300F01F029340400941B1DB
:10140000800000F1604000F56140C0F88031036069
:101410007047024A203042F82030704700E100E077
:101420000123064A410952F8212000F01F0003FA67
:1014300000F01040003818BF0120704700E100E0C4
:1014400001224309034900F01F008240403341F864
:101450002320704700E100E0054A10309268054BF8
:1014600052F82000C01A2F288CBF0020012070479E
:1014700000ED00E0BC250020F8B50D46EFF3108725
:1014800072B6124ED6E8CF2F0123002AFAD1C6E851
:10149000423F002AF6D1BFF35F8F0D4B00F11004DD
:1014A0009B680C4A53F82430934203D0994201D0F0
:1014B00001F01CFA064B9B6843F82450BFF35F8F82
:1014C0000023C6E88F3F87F31088F8BD3D34002025
:1014D00000ED00E0110100102DE9F04F81468B4630
:1014E000164683B0EFF3108372B6DFF8D0A10093F5
:1014F000DAE8CF1F01230029FAD1CAE8413F0029C9
:10150000F6D1BFF35F8F664B93F90040002CC0F219
:10151000A080644D04EB440705EB870898F806109B
:1015200009F110091970604BBF009B6853F829003E
:101530006300411B2F292FD95C49884240F0A480C9
:101540001C445B4B02372F44043BDB1BC3F34A03B1
:101550006FEAC3434FF421416FEAD34325F82410C7
:1015600005EB840463804BF60153A380FF2348F00E
:101570000100E671C4F808B0A3714B4B9B6843F8B7
:101580002900BFF35F8F0023CAE88F3F009B83F3DE
:10159000108803B0BDE8F08F20F0010E9EF8071010
:1015A000B1422ED84FF42143EB53414BB91C29448F
:1015B000043B04375B1A2F44AEF10401C91BC1F38D
:1015C0004A043C49C3F34A030B432143A8F80410DF
:1015D0003949A8F802304AF6AA2073465B1B5B41E2
:1015E0005843000D88F8076088F80600C8F808B06E
:1015F00048F00100CEF80010BFE7D179B1422ED9F2
:1016000096469EF906C00CEB4C02BCF1000F05EBB0
:101610008202F2DA4BF601510EF10402A8F104073E
:10162000BF1AC7F34A076FEAC7476FEAD7478EF872
:10163000064003EB0408204C05EB8803AEF8047069
:1016400045F82840998083F806C0DE71C3F808B0D9
:1016500093E701F04BF9124B93F9004059E77246BA
:1016600032F8041F490514D44915023102EB410137
:1016700001916FF00701C91B019F491B3944C1F358
:101680004A0141F46041C9E7019301F02FF9019B40
:1016900056E701F5FF1101F5FF511F31E4E700BFE7
:1016A000A3E20220BC25002000ED00E011010010A3
:1016B000EC25002000E0FFFF014880473D3400207A
:1016C0002DE9F04F83B0EFF3108A72B6714ED6E871
:1016D000CF2F0123002AFAD1C6E8423F002AF6D1D3
:1016E000BFF35F8F6C4B00F110089B686B4A53F897
:1016F0002850954245D08D420C4650D0684FEB1B88
:101700002F2B3ED801214FEA50194FEA890909F1E0
:10171000604909F5614900F01F0301FA03F0D9F8A7
:101720000030C9F8800000EA030BBFF35F8FEFF3CE
:101730000581C9B2002934D0884505D0CDE9001013
:1017400001F0D4F8DDE9001025F0010EDEF808C044
:10175000644505D189E0D3F808C0644531D09E4680
:101760009EF9062002EB4203002A07EB8303F2DA1C
:10177000644561D0BBF1000F20D0C9F88001C9F8E1
:101780000000454B9B6843F82850BFF35F8F002350
:10179000C6E88F3F8AF3108803B0BDE8F08F154686
:1017A000EFE725F0010EDEF808C06445D8D19EF9B8
:1017B00006407346002C08DA154646E0C9F880005A
:1017C000DFE793F90640002C37DB04EB440C07EB12
:1017D0008C0C9CF80710DCF80820D9719A609CF9F1
:1017E00006206100002A9A713DDBBCF804E05FEA44
:1017F0004E5E05D50EF5FF1E0EF5FF5E0EF11F0EB7
:101800006FF0070C0A194FEA6E5E920002EB4E026F
:1018100008323A44ACEB030C6244C2F34A026FEA6A
:10182000C2426FEAD2429A801E4B21441A7807EBDB
:1018300081011C708A719DE77346D9B9FF228EF829
:1018400006204BF60152AEF80420164C4AF6AA22A6
:1018500094F800C01946C91B49414A43120D83F848
:1018600006C0227086E7104ADDE79EF906407346FF
:10187000002CAADA0D4A0E4CD21A083AC2F30A31E9
:101880006FEA01516FEA115144EA5202DA809980FD
:1018900070E700BF3D34002000ED00E011010010B2
:1018A000BC250020A3E2022001BDFFFFF625002099
:1018B00000F8FFFF4FF0FF0C20F0030303F160433B
:1018C00003F5644300F003001A68C0000CFA00FC42
:1018D00022EA0C0281400A431A607047F0B5EFF328
:1018E0000585EDB2EFF3108C72B62649D1E8CF2F03
:1018F0000123002AFAD1C1E8423F002AF6D1BFF302
:101900005F8F214E40F0010EB4684AF6AA2354F8C6
:1019100025701E4A0446A41A644163431B0D774593
:101920005BB21BD092F906409C421CD092F9124047
:101930009C4223D092F91E409C4221D092F92A4029
:101940009C4208BF03240FD0114A0024157813705D
:101950008571C1E88F4F8CF31088F0BDB2680D4CD3
:1019600042F82540F0E7002404EB440402EB840233
:10197000FF2494714BF601549480E5E70124F3E7CA
:101980000224F1E73D34002000ED00E0BC250020FA
:10199000A3E202201101001001460248C1F1330107
:1019A000FFF7B0BCB0E2022010B5074C82B0014690
:1019B0000523002200940548FFF764FC0028A8BF17
:1019C000C0F1330002B010BD043F0410B0E20220A9
:1019D00070B504460E461546FFF7BCFC014620468E
:1019E00000F006F8A680E580BFF35F8F70BD00BFF2
:1019F000014B0B44036070473434002070B5104C29
:101A0000104DAC420ED2FF26236863B1FFF7A2FC53
:101A100001462046FFF7ECFFA680BFF35F8F083436
:101A2000AC42F1D370BDFFF795FC01462046FFF7AD
:101A3000DFFF2671BFF35F8F0834AC42E4D370BD83
:101A40008C2D00209C2D002010B50446FFF782FC51
:101A500001462046FFF7CCFFFF232371BFF35F8FC2
:101A600010BD00BF10B50446FFF774FC01462046C8
:101A7000FFF7BEFFFF23A380BFF35F8F10BD00BF42
:101A800010B504460120FFF771FC034B03442360AB
:101A9000BFF35F8F10BD00BF34340020024B0B44F6
:101AA0000360BFF35F8F7047343400200D4B1A681A
:101AB000EFF3108172B6D2E8CFCF0120BCF1000F56
:101AC000F9D1C2E84C0FBCF1000FF4D1BFF35F8F26
:101AD00000221B68C3E88F2F81F3108840BF0020CD
:101AE0000021704714E202202DE9F04F2DED028B0A
:101AF00085B0EFF30583DBB2103B9A0818BF0122D3
:101B00004FF0010103F0030B18BFAF4DAF4B08BFFF
:101B1000AF4D0BEB820253F8226001FA0BF205F590
:101B200041539FEDA78B01925A602FE0B3881C04AC
:101B300040F19380B379002B40F0DD80B6F90820A6
:101B4000002AC0F21E81736902EB420203EBC2035A
:101B5000D3E90247B7F1FF3F08BFB4F1FF3F0ED012
:101B600005EB8B01AB6A0A69D21AE31A934205D3DB
:101B700001232A6A03FA0BF3134200D10C612846B1
:101B800000F0CCFCA042B941C0F2FB80B6F90830AD
:101B9000019A002B0093EA63C8DBD6F8148003EBAC
:101BA0004309284608EBC907D7E9024A00F0B6FC0A
:101BB000A04271EB0A01B9DBBAF1000FC0F2C38099
:101BC000D7E90431834A934200F0ED807A88B6F970
:101BD000080092B242EA0040984702460B4652EA99
:101BE000030100F0B080002B80F2D180B4EB020E34
:101BF0006AEB030A38F93930C7E902EA002B95DBB2
:101C0000716903EB430201EBC202D2E90270BE45E7
:101C10007AEB000C4FEA430288DBB4462CF8083F0D
:101C200006E003EB430001EBC0005A00D0E902706C
:101C3000BE451A447AEB000001EBC20404DB31F923
:101C40003230A446002BECDA28F83930009BACF88F
:101C50000030B3881C043FF56DAF3369EFF3108299
:101C600072B6D3E8CF0F01210028FAD1C3E8401F94
:101C70000028F6D1BFF35F8F4FF6FF74B0880023C2
:101C8000316900B2B480C1E88F3F82F31088984276
:101C9000FFF650AF0746A946746906F1080807EB3E
:101CA000470E04EBCE03D3E90250B6F90830C44620
:101CB000002B13DBB246009704E034F9363094462B
:101CC000002B09DB03EB430604EBC602D2E90271E9
:101CD000BD4270EB0101F0DA5646009FACF800708F
:101CE00034F93E7024F83E30002FD8DAB3794D46EF
:101CF000002B3FF423AF0023B371B6F9083006F18F
:101D00000808581C3DD01A46776903E08046591CE4
:101D10003FF416AF03EB430107EBC100B0F802C07C
:101D20001C461CF4004F9E4637F93130EED09442E9
:101D300080ED028B05D0A8F80030328927F83120D9
:101D400034817246E3E738F8393033813369EFF391
:101D5000108272B6D3E8CF0F01210028FAD1C3E870
:101D6000401F0028F6D1BFF35F8F7388316928F8D0
:101D70003930009B73800023C1E88F3F82F31088C5
:101D8000D4E640BF05B0BDEC028BBDE8F08F28461D
:101D9000CDE9022300F0C2FB029A039B10EB020E76
:101DA00043EB010A26E708460B6902919847002891
:101DB000C9D00299D1E9002311E700BFAFF3008039
:101DC000FFFFFFFFFFFFFFFF00800B4048CA02201C
:101DD00000000B40E91A00102DE9F84F364C256938
:101DE0002DB1BDE8F84F0A213448FFF701BEDFF8F6
:101DF000E4800321404600F05DFB0326C4F80C801C
:101E0000FFF7A8FA4FF0504C2D4B26700344236186
:101E1000DCF800300F216370636961801D834FF02F
:101E20000405A3F878504FF00505A3F890504FF043
:101E30000605A3F8A8504FF007050E214FF6FF72D4
:101E400008274FF00A0EA3F8C0504FF001094FF0D9
:101E50000C0C4FF0020B4FF0090A0D204FF00B0550
:101E6000A3F868111749A280A3F808E1A160A3F8BC
:101E700048B0A3F8F0A0A3F82051A3F838C1A3F804
:101E80005001A3F83090A3F86060A3F8D8701A80CE
:101E90000D4B3046C8F820700C49DC60FFF7ECFAB7
:101EA00049463046FFF7A6FA094B0A211F6403484A
:101EB000BDE8F84FFFF79CBD0426002014E2022085
:101EC00034340020FFFF100048CA0220E91A001035
:101ED00000200B4000000B40004870470426002003
:101EE0002DE9F041054618200C4603F051F806464E
:101EF000002843D01821204603F066F801217061C4
:101F0000284600F0F5FAF5600746FFF723FA4FF090
:101F100050414FF6FF731B4A3770024432610A6822
:101F200033817270A2B27281013AB38072805CB167
:101F3000002204EB44047069A10020F812300C3236
:101F4000013391429BB2F8D10F4C4FF001082C1B8A
:101F5000B4FA84F4640907EB84040C4B08FA07F71D
:101F600020460B492F6243F8246005F50155FFF721
:101F700083FA41462046FFF73DFA2F603046BDE820
:101F8000F08100BF3434002000800B4048CA02209A
:101F9000E91A00101C4B984234D02DE9F041C56875
:101FA000DFF870800121A5EB0806B6FA86F6044634
:101FB0000778760901FA07F305F5415207EB860623
:101FC0002B6230461360FFF715FA30460F49FFF7D2
:101FD00077FB3946284600F07FFAE3680025A3EB3B
:101FE0000802B2FA82F2237809495209606903EBC8
:101FF000820341F8235003F025F82046BDE8F04164
:1020000003F020B8704700BF04260020E91A001032
:1020100048CA022000800B40F8B59DF820500446C5
:1020200017461E4635B900F081FA874266EB01017A
:1020300000295CDB2169EFF3108372B6D1E8CF0F82
:1020400001220028FAD1C1E8402F0028F6D1BFF3C1
:102050005F8FB4F90220656902EB4201002A4FEA62
:10206000C10C206905EBC10139DB35F80CE0A4F89F
:1020700002E04FF0000EC0E88FEF83F3108848882D
:10208000069B0130C0F30E00012838BF01200B6110
:10209000079B48804B61C1E9027640EA0240236910
:1020A000EFF3108172B6D3E8CF7F0126002FFAD16B
:1020B000C3E8476F002FF6D1BFF35F8FA38825F8E1
:1020C0000C30A2802369C3E88FEF81F310880122CE
:1020D000E368217803F501538A405A60F8BD002275
:1020E000C0E88F2F83F310884FF0FF30F8BD2846EB
:1020F000F8BD00BF0146F0B50069EFF3108772B676
:10210000D0E8CF5F0124002DFAD1C0E8454F002D63
:10211000F6D1BFF35F8FB1F902E04C690EEB4E0CC4
:10212000BEF1000F4FEACC05086904EBCC0C3CDB98
:10213000665B4E800026C0E88F6F87F31088BCF87E
:102140000200CCE902230130C0F30E00012838BFA1
:102150000120059BACF80200CCF81030069B40EA49
:102160000E40CCF814300B69EFF3108272B6D3E84E
:10217000CFCF0127BCF1000FF9D1C3E84C7FBCF1F0
:10218000000FF4D1BFF35F8F8B886353A1F804E095
:102190000B69C3E88F6F82F310880122CB6809783E
:1021A00003F501538A405A60F0BD0023C0E88F3F19
:1021B00087F310884FF0FF30F0BD00BF0346408921
:1021C000B0EB214F37DD58690A1402EB420210B51B
:1021D00000EBC2001C69EFF3108C72B6D4E8CFEFAD
:1021E0000122BEF1000FF9D1C4E84E2FBEF1000F5D
:1021F000F4D1BFF35F8F428889B292B28A4207D08E
:1022000000221B69C3E88F2F8CF31088002010BDBB
:1022100042F4004242800121002218699971C0E80D
:102220008F2F8CF310881C78DA68084602F501536A
:10223000A140596010BD0020704700BF4078704732
:102240002DE9F041851F41F1FF37A84271EB0703EB
:1022500038BF002582B038BF2F4604460E4600F036
:1022600065F9281A67EB010C01287CF1000C06DAED
:102270002046314602B0BDE8F04100F08FB900F0D1
:1022800055F9854267EB010100290ADB0021174B54
:102290002A46009316483B460191FFF72BFF013079
:1022A000E6D04FF0000C134A1349536A9F4204D8FA
:1022B000906AA842DCD29F42DAD10B68EFF310801B
:1022C00072B6D3E8CF8F5FF0010EB8F1000FF8D1EE
:1022D000C3E848EFB8F1000FF3D1BFF35F8F0B688D
:1022E000C3E88FCF80F3108820BFDEE7AD1A00105F
:1022F0000426002000000B4014E202202DE9F041EA
:1023000082B0064600F012F94FF47A7304464FF09B
:10231000FF306FF00042E6FB0341A04272EB010385
:102320003ABF044615460D46A61F45F1FF37B44295
:1023300075EB07033CBF0026374600F0F7F8301A6C
:1023400067EB0101012871F1000106DA20462946F8
:1023500002B0BDE8F04100F021B900F0E7F8864294
:1023600067EB010100290ADB0021174B324600937D
:1023700016483B460191FFF7BDFE0130E6D04FF015
:10238000000C134A1349536A9F4204D8906AB04222
:10239000DCD29F42DAD10B68EFF3108072B6D3E83B
:1023A000CF8F5FF0010EB8F1000FF8D1C3E848EF0E
:1023B000B8F1000FF3D1BFF35F8F0B68C3E88FCF85
:1023C00080F3108820BFDEE7AD1A0010042600203D
:1023D00000000B4014E202202DE9F04306460D46B2
:1023E00083B0EFF30584E4B23CB12D4B5A6AAA42A4
:1023F0001CD2002003B0BDE8F0832A4FD7F80C9020
:1024000097F80080484600F089F808F1040859F868
:1024100028301B1A301A65EB0101984271F1000156
:1024200010DB20BF1E4B5A6AAA42E2D314BF01241C
:1024300000249B6AB34234BF204644F0010003B03D
:10244000BDE8F08300F072F8864265EB01010029D7
:1024500014DB154B3846CDE9003432462B46FFF7E6
:1024600049FE011E0ADD0E4B5A6AAA4216D39B6A28
:10247000B34211D30B48FFF7A1FEB6E7084B5C6AE5
:10248000AC42B6D3641B18BF01249B6AB34234BF6D
:10249000204644F00100ADE7AA42EBD120BFE9E7B6
:1024A00000000B4004260020AD1A001000487047C1
:1024B00000000B4010B4054B054C064AA04214BF67
:1024C0001846581C5DF8044BFEF7B0BE8439002056
:1024D00000800B40203F0410034B044A904214BF7D
:1024E0001846581CFEF70EBF8439002000800B40B0
:1024F00010B5074A074B084C82B0A04214BF1046E3
:10250000501C009300220323FEF7BCFE02B010BD56
:1025100084390020443F041000800B400346416A88
:102520000A46986A596A8A42FAD17047034B596A37
:102530000A46986A596A9142FAD1704700000B40E6
:1025400030B4154A536A9C46946A536A6345FAD17B
:10255000021959414FF0000528BF01250E4B5B6A57
:10256000B5B15A1C08BF1A4608D04FF0FF310A46D1
:102570000948436A8B42FCD38B4207D1064902E0EB
:10258000486A984202D1886A9042F9D330BC7047B9
:102590009942EDD8F0E700BF00000B40074A536AAC
:1025A0009942FCD8994207D1044B02E05A6A914201
:1025B00002D19A6A9042F9D8704700BF00000B40E0
:1025C00000EB400C4FEA8C0C0CF1804C0CF5803C7D
:1025D000F0B51646DCF80420051FB2F5803F38BF81
:1025E0004FF48032EDB238BFCCF80420012D2AD947
:1025F0004FF40067254C0CF54052176054F820202A
:10260000B2B9DCF80020012D82EA461202F0E002A5
:102610000CF5805632602AD94FF4006144F820301E
:102620004FF480330CF500521160CCF80430F0BD4B
:102630006769B7FBF2FE0EF1010E0EEB4E0EBEF116
:10264000030EFCD2DDE70129D2D103240CF5405260
:102650001460DCF80820D207FBD5DCF800200B4C16
:1026600082EA461202F0E0020CF580563260012246
:10267000DCF800504D4005F00305356002FA01F129
:10268000DCF808200A42FBD0C6E700BF8C390020E6
:10269000014B53F8200070478C39002070B4039D23
:1026A00004682D0345EA03451B4B002CB3FBF1F3F3
:1026B000B2FBF3F61FDB194A194B904214BF4FF4DB
:1026C00080424FF40042174C1A6003F580531A60A1
:1026D000A36832EA0303FBD1212200F540530433FF
:1026E000016086601A600268002AFCDA0822C56070
:1026F0001A6070BC7047036803F03F038B42DAD165
:102700008368C3F30B03B342D5D1C36803F4EE234C
:10271000AB42D0D1EDE700BF001BB7000080054001
:10272000002002400000024030B44FF080441C4BB7
:102730001C60E0B11B4CA3F54053DC611A4C40F027
:10274000010044401C62596298624FF080454FF08E
:10275000E061134B1548164C1D60846019604AB93E
:1027600030BC4FF00042A3F580531A607047114B04
:10277000D861EAE74FF47A7303FB02F2B2F1807F8B
:102780002ABF6FF07F4313461A464FF080410A4C30
:1027900008482360094B426030BC1960704700BF95
:1027A00000B00D40D3C007B02D3FF84F00A001404E
:1027B000F3FFFF0100800D40A84C002000A00D4059
:1027C000012300EB4000800000F1804000F5841000
:1027D00041600360704700BF002370B5DB8A044688
:1027E0000D46002242E800F2520254BF102104219B
:1027F00044F25220984786462B462246F446BDE8CE
:1028000070400A214FF48170604700BF0023DB8ACB
:10281000002242E800F2520201D41021184704219C
:10282000184700BF08B503460846191E02DB1AB157
:1028300040F03000FFF7D0FF40F02000FAE700BF83
:10284000002310B5DA8A044686B0002343E800F37B
:102850005B0254BF1021042145F2473090471022FB
:102860000346052101A89847052802D0002006B09C
:1028700010BD0DF1080CBCE80F0020600120616064
:10288000A260E36006B010BD034AD2F82838002BDE
:10289000FBD0BFF35F8F704700000E400021044B58
:1028A000044ABFF35F8F43F8041B9342F9D170478A
:1028B0000C080E402C080E4010B44FF48D704FF4ED
:1028C0002A64064A064B07491460D06019605368B1
:1028D000002BFCDA5DF8044B704700BF0080044019
:1028E00000A0044000B0FA00704700BF08B50148DE
:1028F000FEF768FC583F041038B5054C054DAC4256
:1029000004D254F8043B9847AC42FAD338BD00BF18
:10291000283904106839041038B5054C054DAC420F
:1029200004D254F8043B9847AC42FAD338BD00BFF8
:10293000543904106839041010B40748074C084B88
:10294000084A094904601A608B6832EA0303FBD124
:102950005DF8044B704700BF002002407F3BEFEF63
:1029600000300240F6FFF30300000240044BDB6C32
:10297000B3F5004F03D14FF48022024BDA64704765
:1029800000001150002011504FF0E022044BD2F80B
:10299000881D0B43C2F8883D10EE3004704700BF1D
:1029A000030330006FF06041044B054A19609368DF
:1029B000DB4333F06043FAD1704700BF0030024080
:1029C0000000024010B545F25320FFF71FFFBDE89D
:1029D000104003460420184710B545F25320FFF776
:1029E00015FFBDE81040034601201847FEF7D6BC8E
:1029F0001449154B70B55C1AA610442E324628BFF8
:102A00004422124D920028463CF02CF9B4F5867F02
:102A100013D80F4AC6F1440012D02B19410803EB1A
:102A2000C101C3E9002208338B42FAD1C30704D5A0
:102A300020F00100304445F82020064B9D6070BD19
:102A40004320F8E7000000101001001000000020F3
:102A50001101001000ED00E0002370B52B4C82B096
:102A6000C4F88430FFF728FF0122294BDA63636C36
:102A7000012BFCD10321264A244B11639C6B012CB2
:102A8000FCD10226052521460523224A224800962C
:102A9000FFF704FE21462B46204A21480095FFF708
:102AA000FDFD0022042031461E4BFFF789FD214623
:102AB000284600221C4BFFF783FD00220820114608
:102AC0001A4BFFF77DFD002209201146174BFFF737
:102AD00077FD002206201146134BFFF771FD0022FF
:102AE000114B07201146FFF76BFD0420FFF7D0FDC7
:102AF00000240F4BA3FB0035AD0CE0B22946013496
:102B0000FFF75EFE062CF8D102B070BD0000014058
:102B100000300140002F685900000540008C8647B6
:102B200000800540001BB70080D1F008006CDC027B
:102B300083DE1B43000000002DE9F04FC1F30A596A
:102B400016461F4687B0A9F2FF38B9F1000F51D0E1
:102B500040F2FF74A1454DD00024C9F57F720332C5
:102B6000201801EB025101F070FD85A3D3E9002389
:102B700000F06EFE0022844B04460D4600F0B8FFC4
:102B800048B1204629460022804B00F027FE04462B
:102B90000D46A9F2FE38B8F1000F20D03046394674
:102BA00000227B4B00F090FF40B1B8F1000F4FF0D6
:102BB000000010DB774907B0BDE8F08F304639469A
:102BC0000022754B00F06CFF814668B3B8F1000F2E
:102BD0004FF00000EEDB002107B0BDE8F08F324679
:102BE0003B462046294600F00DFE07B0BDE8F04FF9
:102BF00000F04EBB01F029FD61A3D3E9002300F0F2
:102C000027FE0022604B04460D4600F071FF0028AD
:102C1000C4D02046294600225C4B00F0DFFDA9F21B
:102C2000FE3804460D46B9E73046394600F01AFA38
:102C30000B460246394630461F46164600F0CEFD8A
:102C400082468B461A22CDE900AB00F0E9F900F08C
:102C500009FAC1F30A5340F2FF7C82468B464BB11E
:102C6000634507D01A2BD5BFCA46824601F0004BF8
:102C7000A1F1D07B3946304600F0B6FE8146404691
:102C800000F08EFE02460B46CDE9042352465B4619
:102C900000F0B8FD06460F4600F0E4F902460B4688
:102CA0003046394616461F46CDE9026700F096FDCC
:102CB00006460F46DDE9000152465B4600F08EFDF8
:102CC000DDE9042300F09EFD32463B4600F072FD34
:102CD000CDE90401484600F063FE22462B4600F091
:102CE00091FD06460F4600F0BDF982468B46304600
:102CF000394652465B4600F071FDDDE9042300F0E1
:102D000059FD06460F46DDE9000122462B4600F03C
:102D100079FD32463B4600F04DFD00F0B9FAC1F3B3
:102D20000A5440F2FF730D460646002C3FF443AFB1
:102D30009C423FF440AFDDE9020100F055FE08FB84
:102D400009F959468144504600F04EFE00EB090354
:102D50001C44002C0BDD40F2FE7294420BDD05F0AA
:102D6000004545F0FF41002041F4E00123E7002049
:102D700005F000411FE7002205EB035190191AE707
:102D8000EF39FAFE422EE63F0000E03F0000F03F40
:102D90000000B0400000F07F0000B0C0012A2DE923
:102DA000F04706460F4600F0818002EBD2756D10A9
:102DB000012D144666D09046002AB8BF02F10308E0
:102DC0004FEAA808B8F1010F79D09146002AB8BFA0
:102DD00002F107094FEAE909B9F1010F6CD09246F7
:102DE000002AB8BF02F10F0A4FEA2A1ABAF1010FFE
:102DF00068D0A2F120031F2B67D90022FFF7CEFF76
:102E000002460B4600F0FEFC02460B4610461946F1
:102E100000F0F8FC1AF0010F02460B4605D03246CE
:102E20003B4600F0EFFC02460B461046194600F008
:102E3000E9FC19F0010F02460B4605D032463B462D
:102E400000F0E0FC02460B461046194600F0DAFCA2
:102E500018F0010F02460B4605D032463B4600F003
:102E6000D1FC02460B461046194600F0CBFCED079C
:102E700002460B4608D532463B4600F0C3FC0246EC
:102E80000B4601E002460B461046194600F0BAFC1C
:102E9000E40702460B4605D532463B4600F0B2FC3D
:102EA00002460B4610461946BDE8F08702460B461F
:102EB00010461946BDE8F08702460B46C4E70246B5
:102EC0000B46D0E702460B46AFE702460B469DE7AE
:102ED0002DE9F04F002992469B4604460D4681B0ED
:102EE00080F29180C3F30A53A3F2FF33002B28DB57
:102EF000D3F1340325D44FF0FF32A3F1200802FAB6
:102F000008F902FA03F1C3F1200E41EA090122FA9D
:102F10000EF941EA09019A402AEA02022BEA01016C
:102F20000A430ED1342B3BD02AFA03FC0BFA0EFED7
:102F30004CEA0E0C2BFA08F04CEA000C1CF0010FC6
:102F40002ED105F100431D46A046994650465946EC
:102F500000F04AFD2B0D064602462ED040F2FF70CF
:102F600083422AD0C5F31301214326D1294AA3F273
:102F7000FF33B242B8BF32468242A8BF024602FBCC
:102F800003F101F2FF33002B3ADD40F2FE7293426F
:102F90003CDC0022204800EB01531946104609E0B2
:102FA0005B465246204605F10041FFF791FF01F1D3
:102FB0000043194601B0BDE8F08FAEB106F1200321
:102FC000402B14D8002E08DA42464B460020124906
:102FD00000F03EFC8046894672424046494601B0B8
:102FE000BDE8F04FFFF7DABE00200B49E2E752469A
:102FF0005B464046494601B0BDE8F04FFFF79CBD37
:1030000000200021D6E7804689469FE7002003493B
:10301000D0E700BF00F8FFFF0000F03F0000F07FA6
:10302000C1F30A53C3B110B540F2FF7E73450ED011
:103030001344002B8C460BDD40F2FE718B420CDDFD
:1030400000200CF0004C4CF0FF4141F4E00110BDB9
:10305000002001F0004110BD704700230CEB02512D
:10306000181810BDC1F30A53A3F2FF335A1C8C4643
:103070002ADB2DD0342B26DA012270B50221054639
:10308000C3F13304C3F1130E133B22FA03F302FA24
:103090000EFE4EEA030EA4F1200002FA04F3C4F17E
:1030A00020065B1921FA06F601FA00F001FA04F194
:1030B0004CEB0E0C30434A4260EB400E0EEA0C0122
:1030C00002EA030070BD7047002001F00041704724
:1030D00001F0004C4CF07F51002041F4401170474A
:1030E000C1F30A530A4673B3A3F2FF33002B24DB68
:1030F000C3F13403002B2ADD10B501248446A3F16B
:103100002001C3F1200024FA00F004FA03F304FACA
:1031100001F10143581E41F1FF3400EAE27010EB67
:103120000C0E04EAE27042EB00025B4261EB410CE0
:103130000EEA030002EA0C0110BD00294FF0000066
:1031400006DA04497047184601F00041704770479D
:10315000002170470000F0BFC1F30A530A4683B351
:10316000A3F2FF33002B25DBC3F13403002B2CDD4E
:103170000121C3F1200C00B58646A3F1200001FA1D
:1031800000F021FA0CFC002A40EA0C0001FA03F3DB
:1031900007DB1EF1FF3E42F1FF321EEB030E40EB58
:1031A00002025B4260EB400C0CEA020103EA0E00F3
:1031B0005DF804FB00294FF0000007DA4FF00041F2
:1031C0007047184601F0004170477047004970474A
:1031D0000000F03F2DE9F04104460D4622462B4603
:1031E0000020124900F0FAFA002206460F460F4B63
:1031F0002046294600F0DEFA02460B4630463946A4
:1032000000F000FBC1F30A520AB1002909DB00F00B
:103210006DFB02460B4620462946BDE8F04101F011
:1032200055BC00200249BDE8F08100BF0000F03F1E
:103230000000F07F2DE9F04104460D4622462B4662
:103240000020114900F0CAFA002206460F460E4B34
:103250002046294600F0AEFA02460B463046394673
:1032600000F0D0FAC1F30A520AB1002907DB00F0DE
:103270003DFB22462B46BDE8F04101F027BC002073
:103280000249BDE8F08100BF0000F03F0000F07F80
:10329000F8B540F6FF73B3EB115F40D00022284B26
:1032A00004460D4600F0FCFBC8BB00222046294620
:1032B000244B00F009FC064610B100202249F8BD5D
:1032C00020462946FFF7CEFE00F08EFB074600F0B1
:1032D00067FB02460B462046294600F07FFA16A3FC
:1032E000D3E9002300F08EFA01F031F8C1F30A535C
:1032F00040F2FF7405460A46002BE0D0A342DED020
:103300003B44002B0EDD40F2FE718B420EDD02F0DD
:10331000004242F0FF41304641F4E001F8BD002098
:103320000021F8BD304601F00041F8BD701902EBF4
:103330000751F8BDAFF30080EF39FAFE422EE63FA9
:103340000000B0C00000B0400000F07F00000000AE
:1033500008B501F07AF904A3D3E9002300F052FA8A
:1033600008BD00BFAFF300800EE526157BCBDB3F29
:103370002DE9F04F16461F4683B00022AF4B04469E
:103380000D4600F067FB002840F081803B0DC7F33D
:103390000A59B346B84640F2FF7A0193B9F1000FDB
:1033A00041D0204629460022A54B00F053FB0028BF
:1033B0003ED0D14537D03B0D534500F0938040F6C9
:1033C000FF734FEA18529A4200F09180A9F2FF3938
:1033D000B9F1000FC0F28680994AC9F13409B9F1F8
:1033E000000F17DD4FF0FF33A9F1200C03FA0CFC9E
:1033F00003FA09F1C9F1200023FA00F041EA0C01B7
:10340000014303FA09F32BEA030328EA01010B4302
:1034100040F0F18032463B462046294603B0BDE8E5
:10342000F04FFFF755BD0020844903B0BDE8F08F91
:10343000C5F30A532A46290D73BB002FA9F2FF33A7
:1034400034DB002B53DBD3F1340350D44FF0FF3285
:10345000A3F1200002FA00F702FA03F1C3F12006FB
:10346000394322FA06F739439A402BEA020228EA46
:1034700001010A433BD1342B09D02BFA03F308FA9C
:1034800006F628FA00F033430343D8072FD5204629
:10349000294603B0BDE8F08F514540D1002F4FF0D1
:1034A000000020DA002103B0BDE8F08F40F2FE31C9
:1034B000894517DDD3F1340314D44FF0FF31A3F164
:1034C000200401FA04F601FA03F0C3F120053043A9
:1034D00021FA05F6304399402BEA010127EA000062
:1034E000014307D00020574903B0BDE8F08F00200A
:1034F0000021D8E7342B4FF0000009D02BFA03F35A
:1035000007FA05F52B4327FA04F42343D907EAD534
:1035100002F0004242F0FF4141F4E00185E740F64D
:10352000FF7081425BD1002FA9F2FF3329DB002B12
:10353000D8DBD3F13403D5D44FF0FF32A3F1200010
:1035400002FA00F502FA03F1C3F12004294322FA3A
:1035500004F529439A4026EA020227EA01010A43B8
:10356000C0D1342B53D026FA03F307FA04F427FA18
:1035700000F023430343DA074FF00000B3D532498C
:1035800053E740F2FE329145B1DDD3F13403AED4BE
:103590004FF0FF32A3F1200002FA00F502FA03F126
:1035A000C3F12004294322FA04F529439A4026EA6C
:1035B000020227EA01010A4399D1342B2AD026FAC4
:1035C00003F307FA04F427FA00F023430343DB076D
:1035D0004FF000007FF566AF4FF0004125E7390D51
:1035E00051451BD0390D814220D0A9F2FF39B9F1E4
:1035F000000FBFF6F2AE002AFFF674AF32463B462C
:103600002046294603B0BDE8F04FFFF795BA0020E9
:103610000D490AE700204FF0004106E740F2FE3274
:1036200093424FF000007FF73DAF5CE740F2FE327F
:1036300093424FF000007FF756AF33E70000F03FB2
:103640000000F0BF0000F07F0000F0FF2DE9F04324
:1036500040F2FF771C46C1F30A53BB42C4F30A553C
:1036600065D0002D63D0CF0F2BB90020002F62D181
:103670000021BDE8F083AB42FBDBC1F31301C4F3CF
:103680001304B3EB050E41F4801144F4801456D0BA
:103690004FF0FF362311B6FBF3F6BEF10C0FF446E4
:1036A000A8BF4FF00C0C8B1106FB03F301FA0CF8CA
:1036B000CCF11D010B4101334FEA630909FB04F111
:1036C000DB1702FB0311A9FB02394944ACF12009C5
:1036D00000FA09F948EA0908CCF12009AEEB0C0E12
:1036E00020FA09F900FA0CFCBCEB030048EA0908CF
:1036F00068EB0101BEF1000FCFDC904271EB0403D7
:1037000027DB801A61EB0401904271EB040303DBB9
:10371000821A104661EB040117B1404261EB41018E
:10372000C5F586620332BDE8F04301F0DCBA002043
:103730000E49BDE8F0834FF00041BDE8F0839042B0
:1037400071EB0403E8DB821A61EB040410462146A6
:10375000E2E70029E0DA101841EB04010029DBDA86
:103760001218104641EB0401D6E700BF0000F07FBD
:1037700086B003B451FC0804CDE9020151FC0904F0
:10378000CDE9040151EC0A04CDE9060103BCF04780
:10379000BDE800504EEC00C4BDE800504EEC01C442
:1037A000BDE800504EEC02C400BD000000B5FFF7BC
:1037B000DFFF02E010FE30F4F8D441EC100443ECDB
:1037C000112400EE010410EE010480EE200451ECFF
:1037D0001004704700B5FFF7CBFF02E010FE30F495
:1037E000F8D441EC100443EC112400EE010410EE77
:1037F000210480EE200451EC3004704700B5FFF73F
:10380000B7FF02E010FE30F4F8D410B541EC10041C
:1038100043EC112451EC040453EC0524A0FB024CAE
:103820005FF0000EE0FB03CEE1FB02CE4CEC204447
:103830000024E1FB03E444EC30E480EE200451EC8E
:103840005004BDE81040704700B5FFF791FF02E05B
:1038500010FE30F4F8D441EC100443EC112451EC88
:103860002104A0FB01126FEA820252FB100052FBFE
:1038700012F252FB1000A0EBD07C53EC04245CFB52
:1038800013F153EC1524A1FB022001FB030053ECC0
:103890004424A2EB000050FB1CF24FEA111312EB80
:1038A000017043EBE27140EA515020EA915020F060
:1038B000070053EC7524A0FB023C53EC752400FB7D
:1038C00003CC01FB02CC53EC0424ACEB824C40EA69
:1038D0005C70A0F1010041EC400480EE200451EC4A
:1038E0007004704700B5FFF743FF02E010FE30F4AC
:1038F000F8D441EC100420EE010453EC4124A2FB67
:103900000201A1FB03014FEAC101A1F1004162FBE9
:103910001122A2FB0201A1FB0301000F40EB0111E8
:1039200051FB12F0A2EB6002A2FB03014FEA51012E
:10393000A1FB01305CEC6404A0EB030353FB12F326
:1039400001EB23714FEA031323F0FF0343F08003DD
:10395000A3FB03C201FB01FCE1FB032CE1FB032CF5
:10396000ACEB000C43EA1C63A3F10B0341EC5034B5
:1039700080EE200451EC9004704700BF00B5FFF7C3
:10398000F7FE02E010FE30F4F8D441EC100480EEB3
:10399000220410EEB204704700B5FFF7E9FE02E022
:1039A00010FE30F4F8D440EC700400EE010410EE88
:1039B000210480EE200451EC3004704700B5FFF77D
:1039C000D7FE02E010FE30F4F8D440EC600400EEC4
:1039D000010410EE210480EE200451EC3004704705
:1039E00000B5FFF7C5FE02E010FE30F4F8D441EC5C
:1039F000800400EE010410EE010480EE400410EE9D
:103A00001304704700B5FFF7B3FE02E010FE30F478
:103A1000F8D441EC800400EE010410EE010480EEC5
:103A2000400410EE3304704700B5FFF7A1FE02E03A
:103A300010FE30F4F8D441EC100443EC112400EEF5
:103A4000010410EE3004C0F30070704700B5FFF7BA
:103A50008FFE02E010FE30F4F8D441EC100443EC89
:103A6000112400EE010410EE3004C0F380707047A2
:103A700000B5FFF77DFE02E010FE30F4F8D443EC11
:103A8000102441EC110400EE010410EE30F48CBF60
:103A900001200020704700BF00B5FFF769FE02E07B
:103AA00010FE30F4F8D443EC102441EC110400EE85
:103AB000010410EE30F42CBF01200020704700BF3D
:103AC00000B5FFF755FE02E010FE30F4F8D441ECEB
:103AD000100443EC112400EE010410EE30F42CBF6E
:103AE00001200020704700BF00B5FFF741FE02E053
:103AF00010FE30F4F8D441EC100443EC112400EE35
:103B0000010410EE30F48CBF01200020704700BF8C
:103B1000000000000000000000000000DB60BE2884
:103B20004A059193F4D5097F70374D7D66A5D83647
:103B300010E4104FEA58947F58F1AEF78E1BC96D10
:103B4000B8749390BA4B920187647482C77A873FA6
:103B5000CF694A2C7D8D20BA21D1AE4B091C673A22
:103B600090DF17AD8E75644E7DCED460E2172127AD
:103B70000E4A7EEFFF25FEC7036681F762C4CBFBCA
:103B8000479B82D6B39F4DDB6DC2F2C9D98FD1D38B
:103B90008BFA97A7B1EE495D5E7CF9FA7DCE41CFF5
:103BA000BAA494E2ECD7FE9A4257E34711CC8015B1
:103BB000174B02F01F054FF00107AF405FEA621894
:103BC000A7FB00450026E7FB015603EB8803D3F86B
:103BD0001090A9FB06A7D3F80C90A9FB05A8E9FB58
:103BE0006678D3F8089009FB0688E9FB0578A9FBFD
:103BF00004A6D3F8049009FB0588E9FB0478D3F800
:103C0000009009FB0488BF1948F1000870470000C4
:103C1000143B001000B500F0D4F8FFF719FE00BD0A
:103C200050EA013208BF41F0004141F400210B008D
:103C3000020070470BB900200021002240F200036F
:103C4000C3F6F0731CF0020F1CBF104619467047F4
:103C50000022002300245FF0004504E14DF804CD6C
:103C60005FF0000C0CF1040C02F10402FFF7A0FF5E
:103C700098EAE879B9F1807F02D2BCF1400FF1D126
:103C800097EAE87741F2A616C0F64636A9FB06A0E9
:103C90004DF21156C4F67E06A7FB06A1E9FB6601AC
:103CA0000626E7FB060109FB0611DCF1200A57D4C2
:103CB00021FA0CF320FA0CF201FA0AF942EA09029D
:103CC000A2FB0394A2FB0395E3FB6345A4FB0596CB
:103CD000A4FB0597E5FB6567F60856EA47764FF0C3
:103CE000AA39A6FB0967D4EB070675EB45075FEA1F
:103CF0002739360B56EB075659F17F6717F14057B6
:103D0000C0B4A0FB0592A1FB0493E1FB6523A2FBD9
:103D10000596A3FB0497E3FB65674FF0AA39A2FB66
:103D200009A40025E3FB0945641955F100054FF08E
:103D30008839A6FB0923B4EB131465F10005B0EB39
:103D4000940061EBA501B0EB857061F10001CCF549
:103D50008064A4F10E0400F082F9BDE8C0100CE00C
:103D6000CCF58064A4F10E0400F079F95DF804CB81
:103D7000002640F20007C3F6F0775FEAD87868F3D0
:103D8000000C5FEA6C090FD45FEA690906D31CF0E6
:103D9000040C57EA4C713000BDE8F0879CEA9C0C9B
:103DA00051EACC71BDE8F0871CF0040497EA44772F
:103DB000C0B4A6E03CB500F004F830BC03C40CC5A8
:103DC00030BD11F0004C5FEA5C0C5CF0004C06E08A
:103DD0005FEA517C1CF0040C01E05FF0020CC1F3BF
:103DE0000A53A3F2FF32B2F5806F3FF419AF12F11C
:103DF000200FFFF61FAF012363F31F512DE9F0479A
:103E000002F10C02FFF7D4FE5FEA987444F100045B
:103E1000A8EB84780CEB440C4CEAD87C97EAE87762
:103E200098EAE878B8F5800FFFF418AF41F2A619C8
:103E3000C0F64639A8FB09A04DF21159C4F67E0917
:103E4000A7FB09A1E8FB69015FF00609E7FB09018F
:103E500008FB0911B1F1007FFFF4FAAECA0E7C4BEA
:103E600003EB02133CCB801A994110D45FEA6C0635
:103E700036D476101CD200F06CF800F0AFF800F0E9
:103E8000ECF89CEA9C0C51EACC71BDE8F0875FEA43
:103E90006C0649D4761017D200F058F800F0ACF850
:103EA00000F0D8F89CEA9C0C51EACC71BDE8F08790
:103EB00000F04FF800F0AFF800F0CCF81CF0040C64
:103EC00051EA4C71BDE8F08700F040F800F0B2F81C
:103ED00000F0C3F81CF0040C51EA4C71BDE8F08707
:103EE00000F037F8FCB400F096F800F0B3F81CF0DE
:103EF000040491EA4471FCBC03B400F06FF800F0D4
:103F0000ACF89CEA5C0494EA9C0491EAC4711CF04D
:103F1000020F1DBF02460B4603BC0CBC1CF08044C4
:103F200091EA4401BDE8F08700F010F8FCB400F01D
:103F300081F800F092F81CF0040491EA4471FCBC92
:103F400003B400F059F800F085F8DAE7404261EB7D
:103F50004101A1FB0167A0FB01237F084FEA360660
:103F6000F21847F10003A3FB0076E2FB017600277D
:103F7000E3FB01674FF05538A6FB08964FF00009A8
:103F8000E7FB086916EB090659F10007861B71EB80
:103F900007074FEA033040EA1250A0FB0009E9FB93
:103FA0000809A9FB01084FF03330A8FB000858FBB3
:103FB00011FA4AF6AA20C2F6AA2060FB1A99B2EBBF
:103FC000491273EBD9635AFB11FA4FF0C3606AFBD5
:103FD000108816EB481657EBD8677047A2FB048091
:103FE0004FF00001E3FB0401A6FB0583E7FB05346A
:103FF000181A64EB01017047A2FB04804FF0000126
:10400000E3FB0401A6FB05836442E7FB05341818B3
:1040100044EB01017047A2FB05804FF00001E3FB78
:104020000501A6FB04836D42E7FB0435181845EB38
:1040300001017047A2FB05804FF00001E3FB050181
:10404000A6FB0483E7FB0435181A65EB01017047F2
:10405000C4470010404261EB410140F2F334B1FA31
:1040600081F20C2A0CD2153211FA02F3C2F12002AD
:10407000D04021FA02F12244584141EB02517047ED
:1040800069B1C2F12B0230FA02F3C2F12002914071
:1040900090401943A4EB020201EB0251704701006A
:1040A0004FF00000A4F12004D9D17047012767F335
:1040B0001F5117FA03F817D0A0FB080701FB08717E
:1040C000A1FB06785FEAD8469219A6FB047806FBA6
:1040D0000588090351EA1051D7EB003061EB080164
:1040E000A94238BF70470BE00C33012717FA03F8D9
:1040F0000FD0A0FB080701FB0871A94238BF704729
:1041000008BFA04238BF7047001B61EB05010132B8
:10411000704703F1200311FA03F6D3F12003D840CE
:10412000D94030437047000000000000000000004C
:104130000453B1086018850FC8E5F22A6E07271EE0
:104140000D12B2210412572F12557CBCDA30723F87
:1041500017A717A55531994E9D0DBF0AEEE0AB5F2D
:10416000E3EF6D9C7636AD6F697BCCE33D62BD7E3F
:10417000F0810682F3FA428F37D5B78A5313C89E6F
:104180007FABB320491570AF0000000000000000B5
:10419000025E88155580FF00907806B1A602FE01E8
:1041A000DC4E21F0EB88FB027A7C801F1615F803A9
:1041B0003C5DA9D110A9F304AA466CF5C146EE05F1
:1041C000FF65E4EB09F0E70613C00C9EC3A6E00709
:1041D000E1BFEC91C46CD808D5AF5EFFDC43CF09DA
:1041E000466A72E4D72DC50A237E6E197B2CBA0B62
:1041F000BFF571648741AE0C61DFB88CB86EA10D5C
:1042000009A9856DC5B5930E3153B1086018850FA6
:104210003071E498359875105915550580FF0F00D9
:1042200009C3EB8F80FB2F00B1910E9A82F34F00F0
:104230001FE7FD2287E76F00C3A09A298FD78F0061
:104240004F4366AC9BC3AF00412A83A9ADABCF00FF
:104250004FB7B41EC68FEF00B6815F09E66F0F013E
:10426000678589660E4C2F011A52DA3240244F01BD
:10427000483A9B6A7CF86E01FF81B709C4C88E0179
:104280009C8DBC0B1895AE017010DA6B795DCE0178
:104290003A3BE224E921EE0138739533427FECA0EA
:1042A0003114FAF5BD8689916B02FAE6E0F291834A
:1042B000E682120713A85177212621686AB2736A31
:1042C0009D0DBF0AEEE0AB5F19B4E0B71CB66A54AF
:1042D0009596E53DEF07A548D1CBE555DC0E4E3C64
:1042E000CE68ADE839B5A432CB3CFA96D9569A28B7
:1042F000C9B21CA1F9FCAE21864B6BE58AD2F0163F
:104300000453B1086018850F02C00C9EC3A6E007D5
:104310000000000000000000AC79CFD1F71772B1A7
:10432000293BAAB84FEAC12040F00040490043F1C0
:10433000200340F20001C3F6F071C3F10B0320FA31
:1043400003F038BF7047404261F1000170475FEAF7
:10435000D17CC1F30A53A3F2FF330C2B62DA13F1C1
:10436000200FDFDD2DE9F0413C4C70CC4FF0000216
:10437000FFF79CFE1CF0010F04D06FEA0202201A26
:1043800065EB010102F2FE3C40F2FE739C455CD2FB
:104390000A0F334B03EBC2030CCB02F03F0545F091
:1043A0004005801A99410A0E2E4B03EBC20318CB2D
:1043B00002F580725543C01AA1414A0D2A4B03EB06
:1043C000C20318CB124402F5805205FB0255C01AF5
:1043D000A1418A0252EA905242F1000282FB023469
:1043E0005B0D53EAC423C01841EB545184FB0234E3
:1043F0004FF0553383FB043454FB11F304EB930467
:1044000010EB440241EBE473E900A1FB0240C1FB65
:104410000301400A50EBC1504FEA512151EB0C51BE
:10442000BDE8F081B3F5806F07D150EA01320CBFCF
:1044300021EAE17141F400217047002000211CF0C5
:10444000010F08BFC7F6F07170474FF000004FF042
:104450000001A8BFC7F6F071BDE8F0811843001055
:1044600028410010884100101842001040F200015D
:10447000CFF6F0710020704750EA013218BF41F4C6
:10448000002170477FEAA65540F019814FF480540F
:1044900020E18CEA11331B0640F0EE80BCF1000FE6
:1044A00067D1C90451EA5031C004B1FA81F4202C1B
:1044B0004BD20125A540A0FB052301FB0533A0FB42
:1044C00003C5A1FB02C6E1FB6356B2EB152263F103
:1044D0000003B2EB066273EB1623A0FB06C7A1FB39
:1044E00005C8E1FB66784FF05535A7FB05C65FF0C0
:1044F000000CE8FB056C16EB0C064CF1000C12EB03
:10450000963243F1000312EB8C4243EB9C3358FB91
:1045100011F55FF0333755FB11F656FB17F8A5EB95
:10452000581756FB11F5C2F6802656FB15F507EB1A
:104530001537B2EB472063EBD751C4F58064A4F183
:104540001504FFF78CFDBDE8F081B0FA80F410FA95
:1045500004F1A0FB01234FF00000B0EB132061F148
:104560000001C4F58064A4F13504FFF778FDBDE8CF
:10457000F081890451EA90318004404261EB4101AD
:10458000B1FA81F4202C4ED2013C0125A540A0FBBC
:10459000052301FB0533A0FB03C5A1FB02C6E1FB1C
:1045A000635612EB152243F1000312EB066253EB44
:1045B0001623A0FB06C7A1FB05C8E1FB66784FF0F8
:1045C0005535A7FB05C65FF0000CE8FB056C16EB44
:1045D0000C064CF1000C12EB963243F1000312EB87
:1045E0008C4243EB9C3358FB11F55FF0333755FB9E
:1045F00011F656FB17F805EB581756FB11F5C2F6E6
:10460000802656FB15F507EB153712EB472043EBD9
:10461000D751C4F58064A4F11504FFF720FD41F0E3
:104620000041BDE8F081B0FA80F410FA04F1A0FB7B
:1046300001234FEA1320C4F58064A4F13504FFF789
:104640000EFD91F00041BDE8F0815FEA410CBFF43E
:104650000DAF5FEA5C5C3FF409AFACF2FF3CBCF528
:10466000806F3FF409AF012262F31F512DE9F04141
:10467000BCEBEC7F3FF40DAF0C0C4E4D05EBC405CD
:1046800095E80C0002F03F0505F14005A5FB00068A
:1046900005FB01616FEAE14404F01F04464D05EBA0
:1046A000C40560CD521943EB060304F58074A4FBE6
:1046B000000604FB01667FEA26643FF4E3AE3F4D4B
:1046C00005EBC40522CD521843EB050341F2010569
:1046D00005EB44046404A4FB0050C4EBC401E4FBF8
:1046E000060180EAE17481EAE175A5FB0567A4FB98
:1046F00005487F084FEA360616EB080647F1000723
:104700008C0254EA905444F10004801B61EB0701D1
:1047100054FB14F555FB14F655FB15F74FF05534C3
:1047200056FB14F6B6EB173610EB860041EBA6717C
:10473000101A63EB0101224A24CA1CF1010C0BDDA3
:10474000A2FB0C230024E5FB0C34121A8B4164F10C
:1047500000045FF080410CE0DCF1000CA2FB0C23B4
:104760000024E5FB0C3482184B4144F100045FF057
:1047700040414CB91C0013000022B1F100711CB97A
:104780001C000023B1F10071B4FA84F5A5F11D06F7
:10479000A1EB0651AC4013FA05F0C5F12005EB4042
:1047A0001C43EA401043C00A50EB445041EBD42173
:1047B000BDE8F08118420010884100101842001036
:1047C000184300100B5C7325A974F50329B5FA0191
:1047D0000015FC7FEB2FAA0054D9440CC8D2210647
:1047E0001F60DA7F3663E842CFD3D9133C5EEA0913
:1047F000F0889D7F2FC46D04D9860A1C1F17FE0DFB
:10480000D09E3B7FA79B50EC3EF5EB23BCE7E61127
:10481000C7EFBD7ED21C9C03B212F12B46F5DC150E
:1048200049771E7ECA057A3DF493F23314C0CB1942
:104830009CAC5F7DA0A0EF7A1D32193C1D22C61DE5
:104840002F2F7D7CB50FFB1270EF5044530CC1210C
:104850003522787B5C8D6B4745A0F14B18DC6A25CF
:1048600016AD687AC14069576DD9EA5339163629B1
:104870003C2D2F79DFEA4ED38942B35BD639E02C49
:104880002526E0776950EA31D9071164C0D3C430D6
:1048900070625876CB5667F3B3A2FD6B1C7E68340A
:1048A000227AC7740EED7A2F3175E073CCE7FA37B0
:1048B00027111C73C08EC4FC0E79147C0EA7A33B79
:1048C0008ECD417113B7043B8F7B5483D489D23E84
:1048D000EBD8856F9A365B13D96F0B8CD4EA944270
:1048E000A3EF516D5F52CA4A26D33994706E0A46BF
:1048F0004005236B8340C441340B0E9C3DB04849B6
:1049000007EFF168BF086DA3FD6179A485F2B14C92
:104910009D847A663616F8C8D247E5AB1E22A24FB0
:104920002F623664ADC9C8D0E1ADFEB32470C35266
:1049300086AFA461730E73646A35FEBB28F0C5555B
:10494000A3A3025FC6A58CB055B912C40892BA5889
:10495000A394415C90005354372DB0CB19F46E5B97
:10496000D88E9359367C8DA16E3CAAD325022E5E3B
:10497000FC32AF56D0C7A248F619FFDB3253F360C2
:104980007EED9253949AAD7AE1AD22E4CADF8E6354
:10499000C72B7350FF15EF19BD85FBEBBB18FA65EC
:1049A000C7615C4DBD960F7E494B4CF4F7816F6833
:1049B000E617024AEB09EF1DFDBD4DFCC4D2B26AF9
:1049C00013E4B446D2F1000CBCF1200A4ADA63F3D6
:1049D0001F51042F3CD2DAF1000A21FA0CF320FA1D
:1049E0000CF201FA0AF942EA0902C90251EA5051ED
:1049F000C002A2FB0394A2FB0395E3FB6345A0FB6B
:104A00000592A1FB0493E1FB6523A2FB0596A3FBA2
:104A10000498E3FB65684FF0AA39A2FB09A40025BE
:104A2000E3FB0945641955F100054FF03339A6FB46
:104A30000923B4EBC30465F10005B0EB440061EB5E
:104A40004501A1EBD471CCF58064A4F1180441E1D7
:104A5000DAF1000A11FA0AF430FA0CF031FA0CF12A
:104A6000204371E0042F03D291EAC771BDE8F08FB3
:104A700063F31F518AF3060A31FA0AF0002110E1AC
:104A800049085FEA30000022002300264FF08047EB
:104A900086E041F30A540020002114F1010F43D1B4
:104AA000C3F6F07140E0C3F30A5400200021DCBBE0
:104AB00017F0040F38D017F0020F0CBF0637063F6F
:104AC00032E01000190051F400217047012A43EB35
:104AD000030C1CF5001FF4D8012841EB010C1CF558
:104AE000001FF0D82DE9F04FCF0F21F000411B003F
:104AF00006D50A3723F000438B420AD8063F02E06E
:104B00008B4206D8063714001D0002000B0020005F
:104B1000290043F30A5414F1010FBAD0C1F30A5427
:104B2000002CC0D0FEF794FE4FEA11520123B2F5DB
:104B30007D723FF547AF63F31F51012303FA02F380
:104B4000A0FB030401FB034180B40A0CB2F5807F93
:104B500096D302FB02F348F65C14624341F2272528
:104B60009B0B03FB1522B2F54C12520E5C4B03EB70
:104B700002133CCB5B085FEA3202A4FB00C60027AD
:104B8000E4FB016716EBC57647EB5507A5FB00C0B4
:104B90005FF00008E5FB0108B0EBC47068EB54015E
:104BA0008C0144EA9064FD0B94FBF5F404FB04F5DE
:104BB00003EB842384FB05894FEA094A4AEA184A31
:104BC0005AFB15FA4FF0663C5AFB15FB5AFB1CFAD0
:104BD00044F6251CC0F2120C5BFB1CFB4FF0553C4D
:104BE000ABEB2B3BAAEB0B0A12EB4A1243EBEA634B
:104BF000A8FB0C5A4FF0000BC9FB0CAB1AEB0B0ACD
:104C00004BEBEB7BB2EB0A0263EB0B03E402A4FB7E
:104C1000005848BFA8EB00084FEAE879C4FB0189B7
:104C2000A4FB065A48BFAAEB060A4FEAEA7BC4FB7C
:104C300007AB16EB080647EB0907B0EB0A0061EB80
:104C40000B014FF0FF34BD0BB4FBF5F4C50A55EA78
:104C5000415554FB05F54FEAD60646EA4776A5FBD3
:104C600006B84FEAD70A48BFA8EB060805FB0A8832
:104C700012EB057243EB2513A0EB080080FB0489BF
:104C80005FEA983848EA894868FB170012EB680227
:104C900043EBE87304FB00F412EBE43043EBE47104
:104CA00080BC49085FEA30004FEA877680EAE67008
:104CB00081EAE67146F21A12C1F2B4024EF651537D
:104CC000C6F287434FEA9706E6FB020106FB031193
:104CD0004FF47D74FFF7C3F991EAC771BDE8F08F17
:104CE000C44700100022002950DA404261EB410124
:104CF000C9B1B1FA81F30B3B17D4D3F1200C30FAD0
:104D00000CFC9840994051EA0C011A44524202F2BC
:104D1000324201EB025141F0004140F2FE739A42EF
:104D200038BF704721E011467EE003F1210310FAFD
:104D300003FCA3F1010301FA03FCC3F1200320FAF1
:104D400003F021FA03F140EA0C00A3EB020202F2A5
:104D5000324214D050F1000041EB025141F00041C9
:104D600040F2FE739A4238BF70474FF00001A8BF6F
:104D7000C7F6F0714FF00000704700217047EBD389
:104D800050F1000020F00100E6E70022B9B1B1FACD
:104D900081F30B3B16D4D3F1200C30FA0CFC984075
:104DA000994051EA0C011A44524202F2324201EB9C
:104DB000025140F2FE739A4238BF704720E011461C
:104DC00000F066B803F1210310FA03FCA3F101031C
:104DD00001FA03FCC3F1200320FA03F021FA03F1E6
:104DE00040EA0C00A3EB020202F2324212D050F170
:104DF000000041EB025140F2FE739A4238BF704707
:104E00004FF00001A8BFC7F6F0714FF000007047E7
:104E100000217047EDD350F1000020F00100E8E7D9
:104E2000002880F235804042B0FA80F30B3B11D469
:104E3000984001EB0302524202F2124200EB02518F
:104E400041F000414FF0000040F2FE739A4238BF3B
:104E5000704713E0C3F1000330FA03FCC3F12002F2
:104E60009040A3EB010202F212420CEB025141F01E
:104E7000004140F2FE739A4238BF70474FF0004144
:104E8000A8BFCFF6F0714FF00000704700217047C7
:104E900060B3B0FA80F30B3B0FD4984001EB0302F0
:104EA000524202F2124200EB02514FF0000040F277
:104EB000FE739A4238BF704710E05B4230FA03FC41
:104EC000C3F120029040A3EB010202F212420CEB6C
:104ED000025140F2FE739A4238BF70474FF0000112
:104EE000A8BFC7F6F0714FF000007047002170476F
:104EF0000022A2F232425FEA215CACF10103A1EB95
:104F000003515B0513F5800F32D212EB535210D4CC
:104F10000B2A36DA9140D2F1200330FA03F3194319
:104F20009040BCF1000FA8BF7047404261EB4101C7
:104F3000704720320EDD01FA02F3D2F12002D14097
:104F4000D0401843BCF1000FA8BF7047404261EB4E
:104F500041017047524282F3050231FA02F000210A
:104F6000BCF1000FA8BF7047404261EB41017047A0
:104F700002D000200021704750EA013118BF4FF0E5
:104F8000000C6FF0004101EBDC716FEAEC707047D0
:104F900038B5044609483EF093FC204635F046FDFE
:104FA000054606483EF084FC2DB1054B2C449C423E
:104FB00001D8284638BD0348FCF704F98C2D0020A1
:104FC00000000820643F041070B504460E460B48EC
:104FD0003EF076FC3146204635F0E8FC05460748B1
:104FE0003EF066FC06FB04F42DB1054B2C449C42BC
:104FF00001D8284670BD0348FCF7E4F88C2D00204A
:1050000000000820643F041038B505460C460A48E5
:105010003EF056FC2846214635F0E0FF054606489E
:105020003EF046FC2DB1054B2C449C4201D828464D
:1050300038BD0348FCF7C6F88C2D0020000008207E
:10504000643F041010B5044605483EF039FC204684
:1050500035F0F4FCBDE8104001483EF029BC00BF2B
:105060008C2D00209A4238BF88547047704700BF8B
:105070002DE9F04F83B09946DDE90DAB0F9B8846D3
:1050800011469A07074616D1DA453AD20C460D4624
:10509000ABEB0A060E4422464B4641462020013423
:1050A000B847B442F7D12946BAF1000F08D12046DB
:1050B00003B0BDE8F08F0C46BAF1000F10D00E46D9
:1050C00055460C9B2E449A440191721B4B46013D60
:1050D00041461AF8010D3446B847002DF5D1019923
:1050E0000F9B9B07E3D5651AAB45E0D922464B469B
:1050F000414620200135B8475D4504F10104F5D350
:10510000D5E70C46BAF1000FD9D1D0E72DE9F04F21
:105110000F9FDDF8248017F0020F0A9C9DF82CA049
:105120000E9DDDE90C9644D1F5BBB44241D207F0A7
:10513000010B04F1FF3C4FF0300EC44404E0013495
:10514000A6420CF801EF01D9202CF8D1BBF1000FD9
:1051500000F08880A5422CD904F1FF3C4FF0300EBE
:10516000C44404E00134AC420CF801EF21D0202CFF
:10517000F8D117F0100F0ED017F4806F54D1A6425B
:1051800063D0A54261D0B9F1100F50D0B9F1020F30
:1051900056D0202C29D12024CDE90B57CDE9098404
:1051A000BDE8F04FFFF764BF17F0010B34D1B442F4
:1051B000BFD317F0100F1ED017F4806FE3D1002C6F
:1051C000DDD1B9F1100F63D0B9F1020F77D03024DF
:1051D00088F800400124BAF1000F11D17E0748D5AC
:1051E0002B2608F804600134D6E7264601344FF038
:1051F000300C08F806C0202CCDD0BAF1000FEDD04D
:105200002D2608F804600134CDE90B57CDE9098457
:10521000BDE8F04FFFF72CBFBAF1000F30D0B44219
:1052200005F1FF3585D395E7B9F1100FB3D1BE066F
:105230003BD5202CAFD0582608F804600134A8E7ED
:10524000202CA8D02646013407E0661EB9D0B9F15B
:10525000100F36D0B9F1020FC9D14FF0620C08F827
:1052600006C096E717F0100FC5D017F4806F86D0F0
:1052700089E73E0790D5202608F8046001348BE7C3
:1052800017F00C0F00D0013DB442FFF452AF61E7BC
:10529000BC0612D4782488F80040302488F80140F5
:1052A0000224BAF1000F99D0AAE7202C3FF473AF83
:1052B000782608F8046001346BE75824EBE7622491
:1052C000E9E717F0200FA4F1020C04D04FF0580EBC
:1052D00008F80CE08BE74FF0780E08F80CE086E752
:1052E00000B9704701F090BC10B1D1E90031184706
:1052F000704700BF000000002DE9F04F97B09DED12
:10530000207BDDE9225B0746884651EC170B249C85
:1053100099460C920B4602468DED047B0794FEF7EE
:1053200087FB002840F0F481DDE904014FF0FF32F3
:105330006FF48013FEF7A0FB002840F01B81DDE92D
:1053400004014FF0FF32AC4BFEF7D2FB002840F0D7
:10535000EE80DDE90401A4A3D3E90023FEF7C8FB36
:10536000002840F0D380DDE90401A1A3D3E90023A4
:10537000FEF782FB002840F0C980DDE9040100222D
:105380000023FEF779FB002840F0E88023460D90CB
:1053900013F4806F08BF062530212B460EAAA5F115
:1053A000200605E0013BB34202F8011B00F09381A7
:1053B000092BF7D81E46ED1ADDE90401FEF714FBB0
:1053C0008E4B044603EBC60393ED007B8DED087B0B
:1053D000FEF7E6FA02460B46DDE90401FEF7FEF9A8
:1053E000DDE90823FEF70EFA02460B46CDE90A2353
:1053F000FEF70CFB8246FEF7E5FA02460B46DDE9B6
:105400000A01FEF7EBF902460B46CDE90A2300221A
:105410007B4BFEF76DFB002800F0FE800AF1010ACD
:105420005046FEF7CFFA02460B46DDE90801FEF7CB
:1054300037FB10B14FF0000A0134002E00F0FD8060
:10544000681E0EABDFF8CCC118440FE0ACFB0A219C
:10545000C90801EB8102AAEB42023032BAF1090F0E
:1054600000F8012F40F21C818A461D46202D05F1CF
:10547000010306F1FF36E9D12025691E0EAB614814
:10548000194410E080FB0462C3EBA20303EB830228
:10549000A4EB420404F1300201351C4601F8012F4F
:1054A000002B00F0EB80202D4FEAE473EAD1079B3C
:1054B00003F00303012B18D1BBF1000F15D00D9B96
:1054C000002B00F00A810BF1FF3BBBF1200F0CD940
:1054D0006B1E0EA930220B4405E001355D4503F833
:1054E000012F80F0D180202DF7D1079B0EACCDE9A4
:1054F00002B341464B4638460C9A01950094FFF79B
:10550000B7FD8246504617B0BDE8F08F079B9DED72
:10551000047BCDE923B341464B4638460C9A8DEDCA
:10552000207B229517B0BDE8F04F00F045B9610728
:1055300023464CBF042303234146219338464B4660
:10554000079A48BF304CCDE922B258BF2F4C0C9A75
:10555000209417B0BDE8F04FFFF78ABDDDE90423C2
:1055600000200021FEF73AF90123CDE904010D9353
:1055700023460DE723469C0740F0AA80BBF1040FA9
:1055800040F2A6800C9B1D461C1F04EB0B0A2A460A
:105590004B46414620200135B847AA45F7D155462C
:1055A0001B4C261F14F8010D2A464B464146B847AE
:1055B000B44205F10105F5D1079B0AF1040A9807E9
:1055C000A0D50C9CAAEB04039B459BD952464B46A5
:1055D000414620200AF1010AB847AAEB04035B45C3
:1055E000F4D38FE7AFF300800000000065CDCD411C
:1055F0000000000065CDCDC1FFFFEF7F38820410B1
:105600000000E03F67666666B03F0410B83F0410D4
:10561000C43F0410CDCCCCCC0022DDE90A01634BA1
:10562000FEF72AFA00287FF408AFBAF1000F6AD11A
:105630000AF1010A002E7FF403AF2046FEF7B0F90D
:1056400002460B46DDE90401FEF7C8F802460B46A8
:10565000CDE904230022554BFEF70EFA00287FF413
:105660000CAFDDE904010022504BFEF741FA00289F
:105670007FF403AF013424F00104FEE6079B03F03E
:105680000303012B00F08280202D3FF42EAF0D9BF1
:105690007BB32D220DEB050383F83820013524E779
:1056A000202B3FF4E9AE0EAA15441E44302204E03C
:1056B000202B05F8012F3FF4DFAE9E4203F10103DA
:1056C000F6D12E220DEB060383F83820751CD4E6A4
:1056D000DDF830A063E720256EE6079B13F00C0F82
:1056E00050D00BF1FF3BAB453FF6F2AE202D3FF41F
:1056F000FCAE079B5A0701D52B22CBE71B077FF592
:10570000F4AE2022C6E71AF0010F3FF496AE8FE701
:10571000A60734D1BBF1030F31D90C9B1D46DC1E0B
:1057200004EB0B0A2A464B46414620200135B84778
:105730005545F7D155461E4CE61E14F8010D2A4674
:105740004B464146B847A64205F10105F5D1079BF6
:105750000AF1030A9D077FF5D5AE0C9CAAEB040362
:105760009B457FF6CFAE52464B46414620200AF17C
:10577000010AB847AAEB04039B45F4D8C2E6DDF85A
:1057800030A0D7E7AB453FF6A3AEAEE6BBF1000FC6
:105790003FF47AAF0D9B002B9FD00BF1FF3B5D4593
:1057A000FFF496AE202D7FF474AF9EE60000E03F3C
:1057B000BF3F0410000000002DE9F04F9FB02A9E6B
:1057C000DDE92845074693460891099322462B4672
:1057D000204629460E96DDE92BA6FEF729F900287A
:1057E00040F0BE80204629464FF0FF32784BFEF74E
:1057F0007FF9002840F0B480204629464FF0FF3260
:105800006FF48013FEF738F9002840F0A980204695
:10581000294600220023FEF72FF9002840F0D58109
:10582000CDE90A45DDE90A239046994606F400626F
:1058300016F480630F92139340F0A18058EA090395
:1058400040F0CA80002A40F0E38106230E9316F050
:105850000202109240F0D4815346042B38BF042337
:105860000C920422043B12920F93204629460022F8
:105870000023FEF701F9002840F0F3819DED0A7B3B
:105880000F9B5A4603930E9B8DED007B029326F4EB
:10589000006304933846099B0899FFF72DFD0246E3
:1058A00016F0200F099B08990CBF6520452002F1D6
:1058B0000108B8470C9A129B16AC5D1E82EAE2738F
:1058C000A3EBE273D10F002622469946DFF804C10C
:1058D00001E0202E10D0CE46ACFB0930C00800EB12
:1058E0008003A9EB43033033BEF1090F814606F173
:1058F000010602F8013BECD80523002006930A2399
:1059000005950094099D089C4246CDE90330CDE9F8
:1059100001612B4621463846FFF7F8FB109A804676
:10592000D2B1A0EB0B06B24516D90BEB06022B4603
:10593000214620200136B847B245F6D80BF1FF3397
:105940005344CBF10102A3EB08034244924538BF14
:10595000002308F10108984440461FB0BDE8F08FCD
:105960005A463846CDE92845CDE92BA60E9C099B21
:1059700008992A941FB0BDE8F04FFFF7BDBC58EA64
:1059800009032BD1002A3FF462AF00230C930E9B36
:105990000C9A934200F3B9814FF000082046294643
:1059A00000220023FEF768F8002840F013819DEDE7
:1059B0000A7B26F4006646F480668DED287B5A4605
:1059C0003846CDE92A8A099B08992C96D2E700BF70
:1059D000FFFFEF7FCDCCCCCC06230E93C9F30A504A
:1059E000A0F2FF30FDF7DCFFC1A3D3E90023FDF7F0
:1059F00009FFC1A3D3E90023FDF7DCFEC9F31309B6
:105A0000CDE90C0149F07F5140460022B24B41F4F0
:105A10004011FDF7E3FEA4A3D3E90023FDF7F2FE56
:105A200002460B46DDE90C01FDF7C4FEFDF7DCFF85
:105A30000C90FDF7B5FF9EA3D3E90023804689466D
:105A4000FDF7E0FE0022A54BFDF7B4FEFDF7CCFF0D
:105A5000034649464046129397A3D3E90023FDF736
:105A6000D1FE804612988946FDF79AFF94A3D3E9A8
:105A70000023FDF7C7FE02460B4640464946FDF7A8
:105A8000ADFE02460B4680468946FDF7BBFE424608
:105A90004B46CDE9100140464946FDF78BFE0022FA
:105AA000CDE91401DDE910018D4BFDF7D1FE002297
:105AB0008C4BFDF77FFE02460B46DDE91001FDF73A
:105AC000C7FE0022884BFDF775FE02460B46DDE956
:105AD0001001FDF7BDFE42464B4680468946002038
